{
  "transactions": [
    {
      "hash": "0x84abef4efd6d544202c15038821ce56fb516a545f5ec064dc114ea5de84460d7",
      "transactionType": "CALL",
      "contractName": null,
      "contractAddress": "0xe03a1074c86cfedd5c142c4f04f1a1536e203543",
      "function": "initialize((address,address,uint24,int24,address),uint160)",
      "arguments": [
        "(0x0000000000000000000000000000000000000000, 0x1c7D4B196Cb0C7B01d743Fbc6116a902379C7238, 8388608, 60, 0x024245B2CDBccf9581D1f6FbA533ca4061410080)",
        "3543191142285914327220224"
      ],
      "transaction": {
        "from": "0x73092e88d49946ac32b6eb1a394f81bb553e411a",
        "to": "0xe03a1074c86cfedd5c142c4f04f1a1536e203543",
        "gas": "0x122f3",
        "value": "0x0",
        "input": "0x6276cbbe00000000000000000000000000000000000000000000000000000000000000000000000000000000000000001c7d4b196cb0c7b01d743fbc6116a902379c72380000000000000000000000000000000000000000000000000000000000800000000000000000000000000000000000000000000000000000000000000000003c000000000000000000000000024245b2cdbccf9581d1f6fba533ca406141008000000000000000000000000000000000000000000002ee4cc6d5cdcf00000000",
        "nonce": "0x23",
        "chainId": "0xaa36a7"
      },
      "additionalContracts": [],
      "isFixedGasLimit": false
    }
  ],
  "receipts": [
    {
      "type": "0x0",
      "status": "0x1",
      "cumulativeGasUsed": "0x1085bc6",
      "logs": [
        {
          "address": "0xe03a1074c86cfedd5c142c4f04f1a1536e203543",
          "topics": [
            "0xdd466e674ea557f56295e2d0218a125ea4b4f0f6f3307b95f85e6110838d6438",
            "0x7cd5aa906aadff2d0776a1c7fed113e19284420876110f9de18399546cf2148d",
            "0x0000000000000000000000000000000000000000000000000000000000000000",
            "0x0000000000000000000000001c7d4b196cb0c7b01d743fbc6116a902379c7238"
          ],
          "data": "0x0000000000000000000000000000000000000000000000000000000000800000000000000000000000000000000000000000000000000000000000000000003c000000000000000000000000024245b2cdbccf9581d1f6fba533ca406141008000000000000000000000000000000000000000000002ee4cc6d5cdcf00000000fffffffffffffffffffffffffffffffffffffffffffffffffffffffffffcf188",
          "blockHash": "0x964915c368fcdd711e93e311e8c02e1655583018745a227218961842c70aaa44",
          "blockNumber": "0xa46baf",
          "blockTimestamp": "0x69f5fbc8",
          "transactionHash": "0x84abef4efd6d544202c15038821ce56fb516a545f5ec064dc114ea5de84460d7",
          "transactionIndex": "0x62",
          "logIndex": "0x2ab",
          "removed": false
        }
      ],
      "logsBloom": "0x00000000000000000000000000000000000000000000000000000800000000000000000000000000000000000000000000000100000004000000000000000000100000000000000000000000000000000000000000000000000000000000000000000000020000000000000000000800000000000000100000000000000000000000000000000008000000000000000000000001000000000000000000200000000000000000000000000000000000000000008000000000000000000000000000000000000004000000000000000000000000000000000000000000000020001000000000000000010000000000000000000000000000000000000000000000",
      "transactionHash": "0x84abef4efd6d544202c15038821ce56fb516a545f5ec064dc114ea5de84460d7",
      "transactionIndex": "0x62",
      "blockHash": "0x964915c368fcdd711e93e311e8c02e1655583018745a227218961842c70aaa44",
      "blockNumber": "0xa46baf",
      "gasUsed": "0xc6f1",
      "effectiveGasPrice": "0xf4267",
      "from": "0x73092e88d49946ac32b6eb1a394f81bb553e411a",
      "to": "0xe03a1074c86cfedd5c142c4f04f1a1536e203543",
      "contractAddress": null
    }
  ],
  "libraries": [],
  "pending": [],
  "returns": {},
  "timestamp": 1777728457880,
  "chain": 11155111,
  "commit": null
}